:100000000C9463000C948B000C948B000C948B006C
:100010000C948B000C948B000C948B000C948B0034
:100020000C948B000C948B000C948B000C948B0024
:100030000C948B000C948B000C948B000C948B0014
:100040000C9428040C948B000C94F6030C94D003AD
:100050000C948B000C948B000C948B000C948B00F4
:100060000C948B000C948B000000000023002600F1
:10007000290000000008000201000003040700003E
:1000800000000000000000000000250028002B00F8
:1000900000000000240027002A00040404040404D3
:1000A0000404020202020202030303030303010227
:1000B00004081020408001020408102001020408F6
:1000C0001020F5041A0711241FBECFEFD8E0DEBFC1
:1000D000CDBF22E0AEECB1E001C01D92AA3BB20759
:1000E000E1F711E0A0E0B1E0E4ECF6E102C0059038
:1000F0000D92AE3CB107D9F710E0C2E6D0E004C0E3
:100100002197FE010E945D09C136D107C9F70E94FF
:1001100051050C94550B0C940000CF93DF9390E0A5
:10012000FC01E255FF4F249186569F4FFC018491BC
:100130008823C1F090E0880F991FFC01E057FF4F22
:10014000C591D491FC01EA57FF4FA591B4919FB797
:10015000F8943881822F809583238883EC91E22B59
:10016000EC939FBFDF91CF910895AF92BF92CF9252
:10017000DF92EF92FF920F931F93CF93DF936C0167
:100180007B018B01040F151FEB015E01AE18BF0848
:10019000C017D10759F06991D601ED91FC910190FA
:1001A000F081E02DC6010995892B79F7C501DF9112
:1001B000CF911F910F91FF90EF90DF90CF90BF9064
:1001C000AF900895FC01538D448D252F30E0842F8E
:1001D00090E0821B930B541710F0CF96089501976F
:1001E0000895FC01918D828D981761F0A28DAE0F5C
:1001F000BF2FB11D5D968C91928D9F5F9F73928FE3
:1002000090E008958FEF9FEF0895FC01918D828D0E
:10021000981731F0828DE80FF11D858D90E00895DB
:100220008FEF9FEF0895FC01918D228D892F90E033
:10023000805C9F4F821B91098F739927089589EDE8
:1002400091E00E94130121E0892B09F420E0822F24
:10025000089580E090E0892B29F00E941F01811110
:100260000C9400000895FC01A48DA80FB92FB11DB6
:10027000A35ABF4F2C91848D90E001968F739927DC
:10028000848FA689B7892C93A089B1898C918370BA
:1002900080648C93938D848D981306C00288F389B3
:1002A000E02D80818F7D80830895EF92FF920F93E0
:1002B0001F93CF93DF93EC0181E0888F9B8D8C8D12
:1002C00098131AC0E889F989808185FF15C09FB706
:1002D000F894EE89FF896083E889F98980818370C9
:1002E000806480839FBF81E090E0DF91CF911F9178
:1002F0000F91FF90EF900895F62E0B8D10E00F5F99
:100300001F4F0F731127E02E8C8D8E110CC00FB66E
:1003100007FCFACFE889F989808185FFF5CFCE0106
:100320000E943301F1CFEB8DEC0FFD2FF11DE35A4D
:10033000FF4FF0829FB7F8940B8FEA89FB89808189
:100340008062CFCFCF93DF93EC01888D8823B9F003
:10035000AA89BB89E889F9898C9185FD03C08081D0
:1003600086FD0DC00FB607FCF7CF8C9185FFF2CF4D
:10037000808185FFEDCFCE010E943301E9CFDF916F
:10038000CF91089590E0FC01EE58FF4F2491FC01BD
:10039000E255FF4F3491FC01E656FF4FE491EE2306
:1003A000C1F1222339F02330E9F090F4213001F13A
:1003B000223011F1F0E0EE0FFF1FE859FF4FA59139
:1003C000B491EC91E32381E090E029F580E0089579
:1003D0002730A9F02830C9F0243061F780918000DF
:1003E0008F7D03C0809180008F7780938000E2CF63
:1003F00084B58F7784BDDECF84B58F7DFBCF8091B0
:10040000B0008F778093B000D5CF8091B0008F7D02
:10041000F9CF80E090E008953FB7F8948091D30140
:100420009091D401A091D501B091D60126B5A89B99
:1004300005C02F3F19F00196A11DB11D3FBFBA2F76
:10044000A92F982F8827BC01CD01620F711D811D36
:10045000911D42E0660F771F881F991F4A95D1F7BB
:1004600008958F929F92AF92BF92CF92DF92EF92B8
:10047000FF920E940C024B015C0188ECC82ED12C2B
:10048000E12CF12C0E940C02681979098A099B0958
:10049000683E734081059105A8F321E0C21AD10896
:1004A000E108F10888EE880E83E0981EA11CB11CBB
:1004B000C114D104E104F10429F7FF90EF90DF901B
:1004C000CF90BF90AF909F908F900895FC010190C6
:1004D0000020E9F73197AF01481B590BBC0189EDAA
:1004E00091E00C94B5008F929F92AF92BF920F93C0
:1004F0001F93CF93DF93CDB7DEB7A1970FB6F894D4
:10050000DEBF0FBECDBF19A2423008F44AE08E0113
:100510000F5D1F4F842E912CB12CA12CA5019401AD
:100520000E943B09E62FB901CA01EA30F4F4E05D0C
:10053000D801EE938D01232B242B252B79F790E006
:1005400080E0109719F0CD010E946602A1960FB6C7
:10055000F894DEBF0FBECDBFDF91CF911F910F91F9
:10056000BF90AF909F908F900895E95CE1CFCF92BC
:10057000DF92EF92FF92CF93DF936C01990FEE0819
:10058000FF08F7FE19C06DE289ED91E00E94550168
:10059000EC0166277727CB016C197D098E099F092D
:1005A0004AE00E9473028C0F9D1FDF91CF91FF9054
:1005B000EF90DF90CF9008954AE0C701B601DF9138
:1005C000CF91FF90EF90DF90CF900C9473024F92F9
:1005D0005F926F927F928F929F92AF92BF92CF92D3
:1005E000DF92EF92FF926B017C01AC019B010E94B4
:1005F00036098823C1F088E591E00E9466027C01FB
:1006000084E691E00E9466028E0D9F1DFF90EF90A0
:10061000DF90CF90BF90AF909F908F907F906F9022
:100620005F904F90089546015701E894B7F82FEF77
:100630003FEF4FE75FE7C501B4010E943609811122
:100640000DC02FEF3FEF4FE75FE7C501B4010E94F8
:100650003A0718161CF48CE591E0CFCF2FEF3FEF4F
:100660004FE75FE4C701B6010E94310918161CF478
:1006700080E691E0C2CF2FEF3FEF4FE75FECC7017D
:10068000B6010E943A0787FDF3CF20E030E0A901D0
:10069000C701B6010E943A07B12CA12C87FF0AC0FE
:1006A0006DE289ED91E00E9455015C01F7FAF0944A
:1006B000F7F8F0942AE037ED43EA5BE3C701B601AF
:1006C0000E9496082B013C010E9402096B017C01EB
:1006D0000E943F079B01AC01C301B2010E94950833
:1006E0002B013C014AE0C701B6010E9473027C0164
:1006F000EA0CFB1C6EE289ED91E00E945501E80EC8
:10070000F91E20E030E040E251E4C301B2010E9452
:10071000A0072B013C010E9402094B01B12CA12C26
:100720004AE0C501B4010E947302E80EF91EC5013A
:10073000B4010E943F079B01AC01C301B2010E94BA
:10074000950820E030E040E251E40E94A0070E94BA
:10075000020990E080E04AE00E947302E80EF91E70
:100760004FCF0C946602CF93DF93FC0144815581F7
:100770006081718189ED91E00E94B500EC0184E611
:1007800091E00E9466028C0F9D1FDF91CF9108952A
:10079000FC0180819181009711F00C94FF0908956C
:1007A0001F920F920FB60F9211242F933F934F93E6
:1007B0005F936F937F938F939F93AF93BF93EF93C9
:1007C000FF9389ED91E00E943301FF91EF91BF917A
:1007D000AF919F918F917F916F915F914F913F91D9
:1007E0002F910F900FBE0F901F9018951F920F9290
:1007F0000FB60F9211242F938F939F93EF93FF9334
:10080000E091E901F091EA018081E091EF01F0913E
:10081000F00182FD1BC090818091F2018F5F8F7388
:100820002091F301821741F0E091F201F0E0E752EC
:10083000FE4F958F8093F201FF91EF919F918F91E1
:100840002F910F900FBE0F901F9018958081F4CFBD
:100850001F920F920FB60F9211242F933F938F93F5
:100860009F93AF93BF938091CF019091D001A091BE
:10087000D101B091D2013091CE0123E0230F2D3769
:1008800058F50196A11DB11D2093CE018093CF0193
:100890009093D001A093D101B093D2018091D30164
:1008A0009091D401A091D501B091D6010196A11DDE
:1008B000B11D8093D3019093D401A093D501B0933F
:1008C000D601BF91AF919F918F913F912F910F9042
:1008D0000FBE0F901F90189526E8230F0296A11DBA
:1008E000B11DD2CFEF92FF920F931F93CF93DF935F
:1008F000EC017B018A0188819981009729F02A8186
:100900003B812417350788F4B8016F5F7F4F0E9441
:10091000880A009791F0998388831B830A832C812E
:100920003D81232B11F4FC0110821D830C83B70140
:10093000888199810E944E0B0CC088819981009713
:1009400011F00E94FF09198218821D821C821B82ED
:100950001A82CE01DF91CF911F910F91FF90EF90FE
:100960000895FC0111821082138212821582148272
:10097000FB0101900020E9F73197AF01461B570BAF
:100980000C9472040F931F93CF93DF93EC018B01B0
:10099000198218821B821A821D821C828617970771
:1009A00051F0FB01608171816115710521F0448175
:1009B00055810E947204F801868197819F838E83FE
:1009C00080859185A285B38588879987AA87BB870B
:1009D00084859585A685B7858C879D87AE87BF87DB
:1009E000DF91CF911F910F910895E9EDF1E013820E
:1009F000128288EE93E0A0E0B0E084839583A68322
:100A0000B7838AE491E09183808385EC90E09587B9
:100A1000848784EC90E09787868780EC90E0918BC8
:100A2000808B81EC90E0938B828B82EC90E0958BB5
:100A3000848B86EC90E0978B868B118E128E138EB2
:100A4000148E67E671E080E391E00E94B1046DE6E8
:100A500071E080E291E00E94B10466E771E080E11C
:100A600091E00E94B1046FE771E080E091E00E94A4
:100A7000B10460E371E086E792E00E94C20460E2A4
:100A800071E086E892E00E94C20460E171E086E9CC
:100A900092E00E94C20460E071E086EA92E00C9469
:100AA000C204789484B5826084BD84B5816084BDBD
:100AB00085B5826085BD85B5816085BD80916E00FC
:100AC000816080936E00109281008091810082602D
:100AD000809381008091810081608093810080916A
:100AE00080008160809380008091B1008460809359
:100AF000B1008091B00081608093B00080917A0055
:100B0000846080937A0080917A00826080937A007A
:100B100080917A00816080937A0080917A00806869
:100B200080937A001092C100E091E901F091EA010E
:100B300082E08083E091E501F091E6011082E0918E
:100B4000E701F091E8018FEC80831092F101E091D0
:100B5000ED01F091EE0186E08083E091EB01F091F0
:100B6000EC01808180618083E091EB01F091EC01E8
:100B7000808188608083E091EB01F091EC018081BD
:100B800080688083E091EB01F091EC0180818F7DA2
:100B9000808382E00E948D0083E00E948D0084E0CB
:100BA0000E948D0086E891E00E94660284E691E052
:100BB0000E9466028091D7019091D80101960E940F
:100BC000B7028CEA91E00E94B1038091D701909125
:100BD000D801C4E0880F991FCA95E1F78A589D4F44
:100BE0000E94B3038FEA91E00E94B103E091D70124
:100BF000F091D801D4E0EE0FFF1FDA95E1F7EA5843
:100C0000FD4F60857185828593850E94E70284EBA4
:100C100091E00E94B103E091D701F091D80114E076
:100C2000EE0FFF1F1A95E1F7EA58FD4F8681978175
:100C30000E94B70283EC91E00E94B103E091D701DA
:100C4000F091D80104E0EE0FFF1F0A95E1F7EA5892
:100C5000FD4F64857585868597850E94E702C0E013
:100C6000D0E003E010E082E00E94C201892B09F08D
:100C700064C08091D7019091D8010196843091058C
:100C80000CF0CEC09093D8018093D7010E9431021E
:100C90008091D7019091D80101960E94B7028CEA09
:100CA00091E00E94B1038091D7019091D80164E056
:100CB000880F991F6A95E1F78A589D4F0E94B303E8
:100CC0008FEA91E00E94B103E091D701F091D80141
:100CD00074E0EE0FFF1F7A95E1F7EA58FD4F60854B
:100CE0007185828593850E94E70284EB91E00E94E2
:100CF000B103E091D701F091D801A4E0EE0FFF1FFE
:100D0000AA95E1F7EA58FD4F868197810E94B702C4
:100D100083EC91E00E94B103E091D701F091D801FA
:100D2000B4E0EE0FFF1FBA95E1F7EA58FD4F648576
:100D30007585868597850E94E70283E00E94C2013F
:100D4000892B09F062C08091D7019091D801019759
:100D500097FD6BC09093D8018093D7010E94310218
:100D60008091D7019091D80101960E94B7028CEA38
:100D700091E00E94B1038091D7019091D80124E0C5
:100D8000880F991F2A95E1F78A589D4F0E94B30357
:100D90008FEA91E00E94B103E091D701F091D80170
:100DA00034E0EE0FFF1F3A95E1F7EA58FD4F6085FA
:100DB0007185828593850E94E70284EB91E00E9411
:100DC000B103E091D701F091D80144E0EE0FFF1F8D
:100DD0004A95E1F7EA58FD4F868197810E94B70254
:100DE00083EC91E00E94B103E091D701F091D8012A
:100DF00054E0EE0FFF1F5A95E1F7EA58FD4F648566
:100E00007585868597850E94E702209709F42BCF88
:100E10000E941F01882309F426CF0E94000023CFDF
:100E20001092D8011092D70131CF1093D8010093BE
:100E3000D70194CF86EA92E00E94C80386E992E047
:100E40000E94C80386E892E00E94C80386E792E009
:100E50000E94C80380E091E00E94C80380E191E015
:100E60000E94C80380E291E00E94C80380E391E001
:100E70000C94C8030E947C0708F481E00895E8946C
:100E800009C097FB3EF490958095709561957F4FD2
:100E90008F4F9F4F9923A9F0F92F96E9BB27939580
:100EA000F695879577956795B795F111F8CFFAF490
:100EB000BB0F11F460FF1BC06F5F7F4F8F4F9F4FC1
:100EC00016C0882311F096E911C0772321F09EE81F
:100ED000872F762F05C0662371F096E8862F70E085
:100EE00060E02AF09A95660F771F881FDAF7880F5F
:100EF0009695879597F90895990F0008550FAA0BB5
:100F0000E0E8FEEF16161706E807F907C0F012161C
:100F10001306E407F50798F0621B730B840B950B1F
:100F200039F40A2661F0232B242B252B21F4089574
:100F30000A2609F4A140A6958FEF811D811D089511
:100F40000E94B3070C9424080E94160838F00E94EF
:100F50001D0820F0952311F00C940D080C94130833
:100F600011240C9458080E94350870F3959FC1F322
:100F7000950F50E0551F629FF001729FBB27F00D47
:100F8000B11D639FAA27F00DB11DAA1F649F66279C
:100F9000B00DA11D661F829F2227B00DA11D621FEB
:100FA000739FB00DA11D621F839FA00D611D221FA5
:100FB000749F3327A00D611D231F849F600D211D89
:100FC000822F762F6A2F11249F5750409AF0F1F00C
:100FD00088234AF0EE0FFF1FBB1F661F771F881F75
:100FE00091505040A9F79E3F510580F00C940D0898
:100FF0000C9458085F3FE4F3983ED4F386957795B8
:101000006795B795F795E7959F5FC1F7FE2B880F1A
:10101000911D9695879597F9089597F99F6780E8B0
:1010200070E060E008959FEF80EC089500240A943A
:101030001616170618060906089500240A941216B3
:101040001306140605060895092E0394000C11F4E6
:10105000882352F0BB0F40F4BF2B11F460FF04C093
:101060006F5F7F4F8F4F9F4F089557FD9058440FEC
:10107000551F59F05F3F71F04795880F97FB991FF7
:1010800061F09F3F79F087950895121613061406B4
:10109000551FF2CF4695F1DF08C016161706180641
:1010A000991FF1CF86957105610508940895E8941C
:1010B000BB2766277727CB0197F908952F923F9298
:1010C0004F925F926F927F928F929F92AF92BF9258
:1010D000CF92DF92EF92FF920F931F93CF93DF9304
:1010E000CDB7DEB7CA1BDB0B0FB6F894DEBF0FBE61
:1010F000CDBF09942A88398848885F846E847D84AE
:101100008C849B84AA84B984C884DF80EE80FD80AF
:101110000C811B81AA81B981CE0FD11D0FB6F89425
:10112000DEBF0FBECDBFED0108955058BB27AA27E3
:101130000E94AD080C9424080E94160838F00E9402
:101140001D0820F039F49F3F19F426F40C9413087D
:101150000EF4E095E7FB0C940D08E92F0E9435088A
:1011600058F3BA17620773078407950720F079F4DC
:10117000A6F50C9457080EF4E0950B2EBA2FA02D6F
:101180000B01B90190010C01CA01A0011124FF2734
:10119000591B99F0593F50F4503E68F11A16F0402F
:1011A000A22F232F342F4427585FF3CF469537952E
:1011B0002795A795F0405395C9F77EF41F16BA0BF3
:1011C000620B730B840BBAF09150A1F0FF0FBB1FA1
:1011D000661F771F881FC2F70EC0BA0F621F731FEA
:1011E000841F48F4879577956795B795F7959E3F47
:1011F00008F0B0CF9395880F08F09927EE0F9795D8
:10120000879508950E943D0888F09F5798F0B92F60
:101210009927B751B0F0E1F0660F771F881F991F2B
:101220001AF0BA95C9F714C0B13091F00E9457086E
:10123000B1E008950C945708672F782F8827B85F7E
:1012400039F0B93FCCF3869577956795B395D9F783
:101250003EF490958095709561957F4F8F4F9F4F8D
:1012600008950E947C0708F48FEF08950E947C0780
:10127000880B990B0895A1E21A2EAA1BBB1BFD0136
:101280000DC0AA1FBB1FEE1FFF1FA217B307E40765
:10129000F50720F0A21BB30BE40BF50B661F771FBD
:1012A000881F991F1A9469F760957095809590959D
:1012B0009B01AC01BD01CF010895EE0FFF1F05900A
:1012C000F491E02D09940F931F93CF93DF93823015
:1012D000910510F482E090E0E091B802F091B9023B
:1012E00030E020E0B0E0A0E0309799F4211531051E
:1012F00009F44AC0281B390B24303105D8F58A81FE
:101300009B816115710589F1FB0193838283FE0145
:1013100011C0408151810281138148175907E0F0C3
:101320004817590799F4109761F012960C93129789
:1013300013961C933296CF01DF91CF911F910F919D
:1013400008950093B8021093B902F4CF2115310526
:1013500051F04217530738F0A901DB019A01BD0192
:10136000DF01F801C1CFEF01F9CF9093B90280936B
:10137000B802CDCFFE01E20FF31F8193919322506B
:10138000310939832883D7CF2091B6023091B70233
:10139000232B41F420914201309143013093B70255
:1013A0002093B60220914001309141012115310571
:1013B00041F42DB73EB74091440150914501241BA3
:1013C000350BE091B602F091B702E217F307A0F4F3
:1013D0002E1B3F0B2817390778F0AC014E5F5F4F8B
:1013E0002417350748F04E0F5F1F5093B702409304
:1013F000B602819391939FCFF0E0E0E09CCFCF9332
:10140000DF930097E9F0FC01329713821282A091DA
:10141000B802B091B902ED0130E020E01097A1F4DC
:1014200020813181820F931F2091B6023091B70243
:101430002817390709F061C0F093B702E093B602AC
:10144000DF91CF910895EA01CE17DF07E8F54A81D1
:101450005B819E0141155105B1F7E901FB83EA83E8
:1014600049915991C40FD51FEC17FD0761F4808194
:1014700091810296840F951FE90199838883828167
:1014800093819B838A83F0E0E0E012968D919C919A
:1014900013970097B9F52D913C911197CD010296C4
:1014A000820F931F2091B6023091B7022817390797
:1014B00039F6309751F51092B9021092B802B093F4
:1014C000B702A093B602BCCFD383C28340815181BF
:1014D000840F951FC817D90761F44E5F5F4F88814D
:1014E0009981480F591F518340838A819B8193833F
:1014F00082832115310509F0B0CFF093B902E09352
:10150000B8029ECFFD01DC01C0CF13821282D7CF7B
:10151000B0E0A0E0EEE8FAE00C9460088C010097DF
:1015200051F4CB010E9463098C01C801CDB7DEB72D
:10153000E0E10C947C08FC01E60FF71F9C012250AF
:101540003109E217F30708F49DC0D901CD91DC9170
:101550001197C617D70798F0C530D10530F3CE01E3
:1015600004978617970708F3C61BD70B2297C193DA
:10157000D1936D937C93CF010E94FF09D6CF5B017D
:10158000AC1ABD0A4C018C0E9D1EA091B802B09100
:10159000B902512C412CF12CE12C109731F580919E
:1015A000B6029091B7028815990509F05CC04616FD
:1015B000570608F058C08091400190914101009772
:1015C00041F48DB79EB74091440150914501841B71
:1015D000950BE817F90708F055C0F093B702E093B0
:1015E000B602F90171836083A0CF8D919C91119710
:1015F00012966C90129713967C901397A815B905C4
:1016000059F56C0142E0C40ED11CCA14DB0420F170
:10161000AC014A195B09DA011296159780F06282D3
:10162000738251834083D9016D937C93E114F1045B
:1016300071F0D7011396FC93EE93129776CF229612
:101640008C0F9D1FF90191838083F301EFCFF093FD
:10165000B902E093B80269CF4816590608F42C0184
:101660007D01D3019ACFCB010E9463097C010097D1
:1016700049F0AE01B8010E94450BC8010E94FF0964
:10168000870153CF10E000E050CFFB01DC0102C026
:1016900001900D9241505040D8F70895FB01DC01B4
:1016A00001900D920020E1F7089510E0C2E6D0E02D
:1016B00004C0FE010E945D092196C336D107C9F717
:0416C000F894FFCFCC
:1016C4000000000000001400CDCC8C3F0000B041AD
:1016D40000000000000005000000604000008C4194
:1016E40000000000000008000000004000008041ED
:1016F4000000000000000A000000B04000005C424E
:101704000000BA028000000000005501B500E200AC
:10171400A2011301F10005016E616E00696E66009D
:101724006F7666000D0A00536E61636B0052656646
:10173400726573636F0053616E6477696368004414
:10174400756C636573004269656E76656E69646F76
:101754002061206C61206DC3A17175696E61206583
:101764007870656E6465646F726121002E200020BC
:101774002D202400202D20446973706F6E69626CE3
:0E178400653A00202D204C6F74653A2000005D
:00000001FF
